{
  "_format": "hh-sol-artifact-1",
  "contractName": "Ethrtainment",
  "sourceName": "contracts/Ethrtainment.sol",
  "abi": [
    {
      "inputs": [],
      "stateMutability": "nonpayable",
      "type": "constructor"
    },
    {
      "anonymous": false,
      "inputs": [
        {
          "indexed": true,
          "internalType": "uint256",
          "name": "eventId",
          "type": "uint256"
        },
        {
          "indexed": true,
          "internalType": "uint256",
          "name": "tokenId",
          "type": "uint256"
        },
        {
          "indexed": false,
          "internalType": "address",
          "name": "mintEventContract",
          "type": "address"
        },
        {
          "indexed": false,
          "internalType": "address payable",
          "name": "seller",
          "type": "address"
        },
        {
          "indexed": false,
          "internalType": "address payable",
          "name": "buyer",
          "type": "address"
        },
        {
          "indexed": true,
          "internalType": "uint256",
          "name": "eventPrice",
          "type": "uint256"
        }
      ],
      "name": "EthrNFTCreated",
      "type": "event"
    },
    {
      "inputs": [],
      "name": "checkForTicket",
      "outputs": [
        {
          "components": [
            {
              "internalType": "uint256",
              "name": "eventId",
              "type": "uint256"
            },
            {
              "internalType": "uint256",
              "name": "tokenId",
              "type": "uint256"
            },
            {
              "internalType": "address",
              "name": "mintEventContract",
              "type": "address"
            },
            {
              "internalType": "address payable",
              "name": "seller",
              "type": "address"
            },
            {
              "internalType": "address payable",
              "name": "buyer",
              "type": "address"
            },
            {
              "internalType": "uint256",
              "name": "eventPrice",
              "type": "uint256"
            }
          ],
          "internalType": "struct Ethrtainment.CreatorEvents[]",
          "name": "",
          "type": "tuple[]"
        }
      ],
      "stateMutability": "view",
      "type": "function"
    },
    {
      "inputs": [
        {
          "internalType": "address",
          "name": "mintEventContract",
          "type": "address"
        },
        {
          "internalType": "uint256",
          "name": "tokenId",
          "type": "uint256"
        },
        {
          "internalType": "uint256",
          "name": "eventPrice",
          "type": "uint256"
        }
      ],
      "name": "createEventTickets",
      "outputs": [],
      "stateMutability": "payable",
      "type": "function"
    },
    {
      "inputs": [
        {
          "internalType": "address",
          "name": "mintEventContract",
          "type": "address"
        },
        {
          "internalType": "uint256",
          "name": "eventId",
          "type": "uint256"
        }
      ],
      "name": "ticketSales",
      "outputs": [],
      "stateMutability": "payable",
      "type": "function"
    }
  ],
  "bytecode": "0x608060405234801561001057600080fd5b50600160008190555033600360006101000a81548173ffffffffffffffffffffffffffffffffffffffff021916908373ffffffffffffffffffffffffffffffffffffffff160217905550611060806100696000396000f3fe6080604052600436106100345760003560e01c80632097956c14610039578063706a90101461005557806396479f0f14610071575b600080fd5b610053600480360381019061004e9190610aa0565b61009c565b005b61006f600480360381019061006a9190610adc565b610324565b005b34801561007d57600080fd5b50610086610645565b6040516100939190610d4d565b60405180910390f35b600260005414156100e2576040517f08c379a00000000000000000000000000000000000000000000000000000000081526004016100d990610daf565b60405180910390fd5b6002600081905550600060046000838152602001908152602001600020600501549050600060046000848152602001908152602001600020600101549050813414610162576040517f08c379a000000000000000000000000000000000000000000000000000000000815260040161015990610d8f565b60405180910390fd5b6004600084815260200190815260200160002060030160009054906101000a900473ffffffffffffffffffffffffffffffffffffffff1673ffffffffffffffffffffffffffffffffffffffff166108fc349081150290604051600060405180830381858888f193505050501580156101de573d6000803e3d6000fd5b508373ffffffffffffffffffffffffffffffffffffffff166323b872dd3033846040518463ffffffff1660e01b815260040161021c93929190610d16565b600060405180830381600087803b15801561023657600080fd5b505af115801561024a573d6000803e3d6000fd5b50505050336004600085815260200190815260200160002060040160006101000a81548173ffffffffffffffffffffffffffffffffffffffff021916908373ffffffffffffffffffffffffffffffffffffffff1602179055506102ad60026109da565b600360009054906101000a900473ffffffffffffffffffffffffffffffffffffffff1673ffffffffffffffffffffffffffffffffffffffff166108fc839081150290604051600060405180830381858888f19350505050158015610315573d6000803e3d6000fd5b50505060016000819055505050565b6002600054141561036a576040517f08c379a000000000000000000000000000000000000000000000000000000000815260040161036190610daf565b60405180910390fd5b600260008190555065b5e620f480008110156103bb576040517f08c379a00000000000000000000000000000000000000000000000000000000081526004016103b290610d6f565b60405180910390fd5b6103c560016109da565b60006103d160016109f0565b90506040518060c001604052808281526020018481526020018573ffffffffffffffffffffffffffffffffffffffff168152602001600360009054906101000a900473ffffffffffffffffffffffffffffffffffffffff1673ffffffffffffffffffffffffffffffffffffffff168152602001600073ffffffffffffffffffffffffffffffffffffffff1681526020018381525060046000838152602001908152602001600020600082015181600001556020820151816001015560408201518160020160006101000a81548173ffffffffffffffffffffffffffffffffffffffff021916908373ffffffffffffffffffffffffffffffffffffffff16021790555060608201518160030160006101000a81548173ffffffffffffffffffffffffffffffffffffffff021916908373ffffffffffffffffffffffffffffffffffffffff16021790555060808201518160040160006101000a81548173ffffffffffffffffffffffffffffffffffffffff021916908373ffffffffffffffffffffffffffffffffffffffff16021790555060a082015181600501559050508160046000838152602001908152602001600020600501819055508373ffffffffffffffffffffffffffffffffffffffff166323b872dd3330866040518463ffffffff1660e01b81526004016105c693929190610d16565b600060405180830381600087803b1580156105e057600080fd5b505af11580156105f4573d6000803e3d6000fd5b505050508183827f6b5d0c235ade7abf23dba5682a84dbfb3d0e2b485c25990b34b1b81a4a5d99be8733600060405161062f93929190610cdf565b60405180910390a4506001600081905550505050565b6060600061065360016109f0565b905060008060005b838110156106fc573373ffffffffffffffffffffffffffffffffffffffff166004600060018461068b9190610e19565b815260200190815260200160002060040160009054906101000a900473ffffffffffffffffffffffffffffffffffffffff1673ffffffffffffffffffffffffffffffffffffffff1614156106e9576001836106e69190610e19565b92505b80806106f490610ebd565b91505061065b565b5060008267ffffffffffffffff81111561073f577f4e487b7100000000000000000000000000000000000000000000000000000000600052604160045260246000fd5b60405190808252806020026020018201604052801561077857816020015b6107656109fe565b81526020019060019003908161075d5790505b50905060005b848110156109cf573373ffffffffffffffffffffffffffffffffffffffff16600460006001846107ae9190610e19565b815260200190815260200160002060040160009054906101000a900473ffffffffffffffffffffffffffffffffffffffff1673ffffffffffffffffffffffffffffffffffffffff1614156109bc5760006004600060018461080f9190610e19565b81526020019081526020016000206000015490506000600460008381526020019081526020016000209050806040518060c001604052908160008201548152602001600182015481526020016002820160009054906101000a900473ffffffffffffffffffffffffffffffffffffffff1673ffffffffffffffffffffffffffffffffffffffff1673ffffffffffffffffffffffffffffffffffffffff1681526020016003820160009054906101000a900473ffffffffffffffffffffffffffffffffffffffff1673ffffffffffffffffffffffffffffffffffffffff1673ffffffffffffffffffffffffffffffffffffffff1681526020016004820160009054906101000a900473ffffffffffffffffffffffffffffffffffffffff1673ffffffffffffffffffffffffffffffffffffffff1673ffffffffffffffffffffffffffffffffffffffff16815260200160058201548152505084868151811061099f577f4e487b7100000000000000000000000000000000000000000000000000000000600052603260045260246000fd5b60200260200101819052506001856109b79190610e19565b945050505b80806109c790610ebd565b91505061077e565b508094505050505090565b6001816000016000828254019250508190555050565b600081600001549050919050565b6040518060c001604052806000815260200160008152602001600073ffffffffffffffffffffffffffffffffffffffff168152602001600073ffffffffffffffffffffffffffffffffffffffff168152602001600073ffffffffffffffffffffffffffffffffffffffff168152602001600081525090565b600081359050610a8581610ffc565b92915050565b600081359050610a9a81611013565b92915050565b60008060408385031215610ab357600080fd5b6000610ac185828601610a76565b9250506020610ad285828601610a8b565b9150509250929050565b600080600060608486031215610af157600080fd5b6000610aff86828701610a76565b9350506020610b1086828701610a8b565b9250506040610b2186828701610a8b565b9150509250925092565b6000610b378383610c46565b60c08301905092915050565b610b4c81610e81565b82525050565b610b5b81610e81565b82525050565b610b6a81610e6f565b82525050565b610b7981610e6f565b82525050565b6000610b8a82610ddf565b610b948185610df7565b9350610b9f83610dcf565b8060005b83811015610bd0578151610bb78882610b2b565b9750610bc283610dea565b925050600181019050610ba3565b5085935050505092915050565b6000610bea602283610e08565b9150610bf582610f35565b604082019050919050565b6000610c0d603e83610e08565b9150610c1882610f84565b604082019050919050565b6000610c30601f83610e08565b9150610c3b82610fd3565b602082019050919050565b60c082016000820151610c5c6000850182610cc1565b506020820151610c6f6020850182610cc1565b506040820151610c826040850182610b61565b506060820151610c956060850182610b43565b506080820151610ca86080850182610b43565b5060a0820151610cbb60a0850182610cc1565b50505050565b610cca81610eb3565b82525050565b610cd981610eb3565b82525050565b6000606082019050610cf46000830186610b70565b610d016020830185610b52565b610d0e6040830184610b52565b949350505050565b6000606082019050610d2b6000830186610b70565b610d386020830185610b70565b610d456040830184610cd0565b949350505050565b60006020820190508181036000830152610d678184610b7f565b905092915050565b60006020820190508181036000830152610d8881610bdd565b9050919050565b60006020820190508181036000830152610da881610c00565b9050919050565b60006020820190508181036000830152610dc881610c23565b9050919050565b6000819050602082019050919050565b600081519050919050565b6000602082019050919050565b600082825260208201905092915050565b600082825260208201905092915050565b6000610e2482610eb3565b9150610e2f83610eb3565b9250827fffffffffffffffffffffffffffffffffffffffffffffffffffffffffffffffff03821115610e6457610e63610f06565b5b828201905092915050565b6000610e7a82610e93565b9050919050565b6000610e8c82610e93565b9050919050565b600073ffffffffffffffffffffffffffffffffffffffff82169050919050565b6000819050919050565b6000610ec882610eb3565b91507fffffffffffffffffffffffffffffffffffffffffffffffffffffffffffffffff821415610efb57610efa610f06565b5b600182019050919050565b7f4e487b7100000000000000000000000000000000000000000000000000000000600052601160045260246000fd5b7f5072696365206d757374206265206d696e696d756d20302e303030322065746860008201527f6572000000000000000000000000000000000000000000000000000000000000602082015250565b7f506c65617365207375626d69742074686520636f727265637420616d6f756e7460008201527f20696e206f7264657220746f20636f6d706c6574652070757263686173650000602082015250565b7f5265656e7472616e637947756172643a207265656e7472616e742063616c6c00600082015250565b61100581610e6f565b811461101057600080fd5b50565b61101c81610eb3565b811461102757600080fd5b5056fea2646970667358221220f575834db6ccbc85e3e44d06260d077882c0f33ae4ded33fcecfd0ac9c5ec08064736f6c63430008040033",
  "linkReferences": {},
  "deployedLinkReferences": {}
}