{
  "_format": "hh-sol-artifact-1",
  "contractName": "Ethrtainment",
  "sourceName": "contracts/Ethrtainment.sol",
  "abi": [
    {
      "inputs": [],
      "stateMutability": "nonpayable",
      "type": "constructor"
    },
    {
      "anonymous": false,
      "inputs": [
        {
          "indexed": true,
          "internalType": "uint256",
          "name": "eventId",
          "type": "uint256"
        },
        {
          "indexed": true,
          "internalType": "uint256",
          "name": "tokenId",
          "type": "uint256"
        },
        {
          "indexed": false,
          "internalType": "address",
          "name": "mintEventContract",
          "type": "address"
        },
        {
          "indexed": false,
          "internalType": "address",
          "name": "seller",
          "type": "address"
        },
        {
          "indexed": false,
          "internalType": "address",
          "name": "owner",
          "type": "address"
        },
        {
          "indexed": true,
          "internalType": "uint256",
          "name": "eventPrice",
          "type": "uint256"
        }
      ],
      "name": "EthrNFTCreated",
      "type": "event"
    },
    {
      "inputs": [],
      "name": "checkForTicket",
      "outputs": [
        {
          "components": [
            {
              "internalType": "uint256",
              "name": "eventId",
              "type": "uint256"
            },
            {
              "internalType": "uint256",
              "name": "tokenId",
              "type": "uint256"
            },
            {
              "internalType": "address",
              "name": "mintEventContract",
              "type": "address"
            },
            {
              "internalType": "address payable",
              "name": "seller",
              "type": "address"
            },
            {
              "internalType": "address payable",
              "name": "owner",
              "type": "address"
            },
            {
              "internalType": "uint256",
              "name": "eventPrice",
              "type": "uint256"
            }
          ],
          "internalType": "struct Ethrtainment.CreatorEvents[]",
          "name": "",
          "type": "tuple[]"
        }
      ],
      "stateMutability": "view",
      "type": "function"
    },
    {
      "inputs": [
        {
          "internalType": "address",
          "name": "mintEventContract",
          "type": "address"
        },
        {
          "internalType": "uint256",
          "name": "tokenId",
          "type": "uint256"
        },
        {
          "internalType": "uint256",
          "name": "eventPrice",
          "type": "uint256"
        }
      ],
      "name": "createEventTickets",
      "outputs": [],
      "stateMutability": "payable",
      "type": "function"
    },
    {
      "inputs": [
        {
          "internalType": "address",
          "name": "mintEventContract",
          "type": "address"
        },
        {
          "internalType": "uint256",
          "name": "eventId",
          "type": "uint256"
        }
      ],
      "name": "ticketSales",
      "outputs": [],
      "stateMutability": "payable",
      "type": "function"
    }
  ],
  "bytecode": "0x608060405234801561001057600080fd5b50600160008190555033600360006101000a81548173ffffffffffffffffffffffffffffffffffffffff021916908373ffffffffffffffffffffffffffffffffffffffff160217905550610f54806100696000396000f3fe6080604052600436106100345760003560e01c80632097956c14610039578063706a90101461005557806396479f0f14610071575b600080fd5b610053600480360381019061004e9190610a35565b61009c565b005b61006f600480360381019061006a9190610a71565b610324565b005b34801561007d57600080fd5b506100866105da565b6040516100939190610cb0565b60405180910390f35b600260005414156100e2576040517f08c379a00000000000000000000000000000000000000000000000000000000081526004016100d990610cf2565b60405180910390fd5b6002600081905550600060046000838152602001908152602001600020600501549050600060046000848152602001908152602001600020600101549050813414610162576040517f08c379a000000000000000000000000000000000000000000000000000000000815260040161015990610cd2565b60405180910390fd5b6004600084815260200190815260200160002060030160009054906101000a900473ffffffffffffffffffffffffffffffffffffffff1673ffffffffffffffffffffffffffffffffffffffff166108fc349081150290604051600060405180830381858888f193505050501580156101de573d6000803e3d6000fd5b508373ffffffffffffffffffffffffffffffffffffffff166323b872dd3033846040518463ffffffff1660e01b815260040161021c93929190610c79565b600060405180830381600087803b15801561023657600080fd5b505af115801561024a573d6000803e3d6000fd5b50505050336004600085815260200190815260200160002060040160006101000a81548173ffffffffffffffffffffffffffffffffffffffff021916908373ffffffffffffffffffffffffffffffffffffffff1602179055506102ad600261096f565b600360009054906101000a900473ffffffffffffffffffffffffffffffffffffffff1673ffffffffffffffffffffffffffffffffffffffff166108fc839081150290604051600060405180830381858888f19350505050158015610315573d6000803e3d6000fd5b50505060016000819055505050565b6002600054141561036a576040517f08c379a000000000000000000000000000000000000000000000000000000000815260040161036190610cf2565b60405180910390fd5b600260008190555061037c600161096f565b60006103886001610985565b90506040518060c001604052808281526020018481526020018573ffffffffffffffffffffffffffffffffffffffff1681526020013373ffffffffffffffffffffffffffffffffffffffff168152602001600073ffffffffffffffffffffffffffffffffffffffff1681526020018381525060046000838152602001908152602001600020600082015181600001556020820151816001015560408201518160020160006101000a81548173ffffffffffffffffffffffffffffffffffffffff021916908373ffffffffffffffffffffffffffffffffffffffff16021790555060608201518160030160006101000a81548173ffffffffffffffffffffffffffffffffffffffff021916908373ffffffffffffffffffffffffffffffffffffffff16021790555060808201518160040160006101000a81548173ffffffffffffffffffffffffffffffffffffffff021916908373ffffffffffffffffffffffffffffffffffffffff16021790555060a082015181600501559050508160046000838152602001908152602001600020600501819055508373ffffffffffffffffffffffffffffffffffffffff166323b872dd3330866040518463ffffffff1660e01b815260040161055b93929190610c79565b600060405180830381600087803b15801561057557600080fd5b505af1158015610589573d6000803e3d6000fd5b505050508183827f6b5d0c235ade7abf23dba5682a84dbfb3d0e2b485c25990b34b1b81a4a5d99be873360006040516105c493929190610c42565b60405180910390a4506001600081905550505050565b606060006105e86001610985565b905060008060005b83811015610691573373ffffffffffffffffffffffffffffffffffffffff16600460006001846106209190610d5c565b815260200190815260200160002060040160009054906101000a900473ffffffffffffffffffffffffffffffffffffffff1673ffffffffffffffffffffffffffffffffffffffff16141561067e5760018361067b9190610d5c565b92505b808061068990610e00565b9150506105f0565b5060008267ffffffffffffffff8111156106d4577f4e487b7100000000000000000000000000000000000000000000000000000000600052604160045260246000fd5b60405190808252806020026020018201604052801561070d57816020015b6106fa610993565b8152602001906001900390816106f25790505b50905060005b84811015610964573373ffffffffffffffffffffffffffffffffffffffff16600460006001846107439190610d5c565b815260200190815260200160002060040160009054906101000a900473ffffffffffffffffffffffffffffffffffffffff1673ffffffffffffffffffffffffffffffffffffffff161415610951576000600460006001846107a49190610d5c565b81526020019081526020016000206000015490506000600460008381526020019081526020016000209050806040518060c001604052908160008201548152602001600182015481526020016002820160009054906101000a900473ffffffffffffffffffffffffffffffffffffffff1673ffffffffffffffffffffffffffffffffffffffff1673ffffffffffffffffffffffffffffffffffffffff1681526020016003820160009054906101000a900473ffffffffffffffffffffffffffffffffffffffff1673ffffffffffffffffffffffffffffffffffffffff1673ffffffffffffffffffffffffffffffffffffffff1681526020016004820160009054906101000a900473ffffffffffffffffffffffffffffffffffffffff1673ffffffffffffffffffffffffffffffffffffffff1673ffffffffffffffffffffffffffffffffffffffff168152602001600582015481525050848681518110610934577f4e487b7100000000000000000000000000000000000000000000000000000000600052603260045260246000fd5b602002602001018190525060018561094c9190610d5c565b945050505b808061095c90610e00565b915050610713565b508094505050505090565b6001816000016000828254019250508190555050565b600081600001549050919050565b6040518060c001604052806000815260200160008152602001600073ffffffffffffffffffffffffffffffffffffffff168152602001600073ffffffffffffffffffffffffffffffffffffffff168152602001600073ffffffffffffffffffffffffffffffffffffffff168152602001600081525090565b600081359050610a1a81610ef0565b92915050565b600081359050610a2f81610f07565b92915050565b60008060408385031215610a4857600080fd5b6000610a5685828601610a0b565b9250506020610a6785828601610a20565b9150509250929050565b600080600060608486031215610a8657600080fd5b6000610a9486828701610a0b565b9350506020610aa586828701610a20565b9250506040610ab686828701610a20565b9150509250925092565b6000610acc8383610ba9565b60c08301905092915050565b610ae181610dc4565b82525050565b610af081610db2565b82525050565b610aff81610db2565b82525050565b6000610b1082610d22565b610b1a8185610d3a565b9350610b2583610d12565b8060005b83811015610b56578151610b3d8882610ac0565b9750610b4883610d2d565b925050600181019050610b29565b5085935050505092915050565b6000610b70603e83610d4b565b9150610b7b82610e78565b604082019050919050565b6000610b93601f83610d4b565b9150610b9e82610ec7565b602082019050919050565b60c082016000820151610bbf6000850182610c24565b506020820151610bd26020850182610c24565b506040820151610be56040850182610ae7565b506060820151610bf86060850182610ad8565b506080820151610c0b6080850182610ad8565b5060a0820151610c1e60a0850182610c24565b50505050565b610c2d81610df6565b82525050565b610c3c81610df6565b82525050565b6000606082019050610c576000830186610af6565b610c646020830185610af6565b610c716040830184610af6565b949350505050565b6000606082019050610c8e6000830186610af6565b610c9b6020830185610af6565b610ca86040830184610c33565b949350505050565b60006020820190508181036000830152610cca8184610b05565b905092915050565b60006020820190508181036000830152610ceb81610b63565b9050919050565b60006020820190508181036000830152610d0b81610b86565b9050919050565b6000819050602082019050919050565b600081519050919050565b6000602082019050919050565b600082825260208201905092915050565b600082825260208201905092915050565b6000610d6782610df6565b9150610d7283610df6565b9250827fffffffffffffffffffffffffffffffffffffffffffffffffffffffffffffffff03821115610da757610da6610e49565b5b828201905092915050565b6000610dbd82610dd6565b9050919050565b6000610dcf82610dd6565b9050919050565b600073ffffffffffffffffffffffffffffffffffffffff82169050919050565b6000819050919050565b6000610e0b82610df6565b91507fffffffffffffffffffffffffffffffffffffffffffffffffffffffffffffffff821415610e3e57610e3d610e49565b5b600182019050919050565b7f4e487b7100000000000000000000000000000000000000000000000000000000600052601160045260246000fd5b7f506c65617365207375626d69742074686520636f727265637420616d6f756e7460008201527f20696e206f7264657220746f20636f6d706c6574652070757263686173650000602082015250565b7f5265656e7472616e637947756172643a207265656e7472616e742063616c6c00600082015250565b610ef981610db2565b8114610f0457600080fd5b50565b610f1081610df6565b8114610f1b57600080fd5b5056fea26469706673582212209b8596ee9b3b16647406dd0310b2fdf9c2b2f692465969488e0a20be79e1ad3464736f6c63430008040033",
  "linkReferences": {},
  "deployedLinkReferences": {}
}